{"abi":[{"type":"fallback","stateMutability":"payable"},{"type":"receive","stateMutability":"payable"},{"type":"function","name":"allowance","inputs":[{"name":"","type":"address","internalType":"address"},{"name":"","type":"address","internalType":"address"}],"outputs":[{"name":"","type":"uint256","internalType":"uint256"}],"stateMutability":"view"},{"type":"function","name":"approve","inputs":[{"name":"guy","type":"address","internalType":"address"},{"name":"wad","type":"uint256","internalType":"uint256"}],"outputs":[{"name":"","type":"bool","internalType":"bool"}],"stateMutability":"nonpayable"},{"type":"function","name":"balanceOf","inputs":[{"name":"","type":"address","internalType":"address"}],"outputs":[{"name":"","type":"uint256","internalType":"uint256"}],"stateMutability":"view"},{"type":"function","name":"burn","inputs":[{"name":"account","type":"address","internalType":"address"},{"name":"value","type":"uint256","internalType":"uint256"}],"outputs":[],"stateMutability":"nonpayable"},{"type":"function","name":"decimals","inputs":[],"outputs":[{"name":"","type":"uint8","internalType":"uint8"}],"stateMutability":"view"},{"type":"function","name":"deposit","inputs":[],"outputs":[],"stateMutability":"payable"},{"type":"function","name":"mint","inputs":[{"name":"account","type":"address","internalType":"address"},{"name":"value","type":"uint256","internalType":"uint256"}],"outputs":[],"stateMutability":"nonpayable"},{"type":"function","name":"name","inputs":[],"outputs":[{"name":"","type":"string","internalType":"string"}],"stateMutability":"view"},{"type":"function","name":"symbol","inputs":[],"outputs":[{"name":"","type":"string","internalType":"string"}],"stateMutability":"view"},{"type":"function","name":"totalSupply","inputs":[],"outputs":[{"name":"","type":"uint256","internalType":"uint256"}],"stateMutability":"view"},{"type":"function","name":"transfer","inputs":[{"name":"dst","type":"address","internalType":"address"},{"name":"wad","type":"uint256","internalType":"uint256"}],"outputs":[{"name":"","type":"bool","internalType":"bool"}],"stateMutability":"nonpayable"},{"type":"function","name":"transferFrom","inputs":[{"name":"src","type":"address","internalType":"address"},{"name":"dst","type":"address","internalType":"address"},{"name":"wad","type":"uint256","internalType":"uint256"}],"outputs":[{"name":"","type":"bool","internalType":"bool"}],"stateMutability":"nonpayable"},{"type":"function","name":"withdraw","inputs":[{"name":"wad","type":"uint256","internalType":"uint256"}],"outputs":[],"stateMutability":"nonpayable"},{"type":"event","name":"Approval","inputs":[{"name":"src","type":"address","indexed":true,"internalType":"address"},{"name":"guy","type":"address","indexed":true,"internalType":"address"},{"name":"wad","type":"uint256","indexed":false,"internalType":"uint256"}],"anonymous":false},{"type":"event","name":"Deposit","inputs":[{"name":"dst","type":"address","indexed":true,"internalType":"address"},{"name":"wad","type":"uint256","indexed":false,"internalType":"uint256"}],"anonymous":false},{"type":"event","name":"Transfer","inputs":[{"name":"src","type":"address","indexed":true,"internalType":"address"},{"name":"dst","type":"address","indexed":true,"internalType":"address"},{"name":"wad","type":"uint256","indexed":false,"internalType":"uint256"}],"anonymous":false},{"type":"event","name":"Withdrawal","inputs":[{"name":"src","type":"address","indexed":true,"internalType":"address"},{"name":"wad","type":"uint256","indexed":false,"internalType":"uint256"}],"anonymous":false},{"type":"error","name":"ERC20InsufficientBalance","inputs":[{"name":"from","type":"address","internalType":"address"},{"name":"fromBalance","type":"uint256","internalType":"uint256"},{"name":"value","type":"uint256","internalType":"uint256"}]},{"type":"error","name":"ERC20InvalidReceiver","inputs":[{"name":"receiver","type":"address","internalType":"address"}]},{"type":"error","name":"ERC20InvalidSender","inputs":[{"name":"sender","type":"address","internalType":"address"}]}],"bytecode":{"object":"0x60c0604052600d60809081526c2bb930b83832b21022ba3432b960991b60a0525f9061002b908261010b565b506040805180820190915260048152630ae8aa8960e31b6020820152600190610054908261010b565b506002805460ff1916601217905534801561006d575f5ffd5b506101c5565b634e487b7160e01b5f52604160045260245ffd5b600181811c9082168061009b57607f821691505b6020821081036100b957634e487b7160e01b5f52602260045260245ffd5b50919050565b601f82111561010657805f5260205f20601f840160051c810160208510156100e45750805b601f840160051c820191505b81811015610103575f81556001016100f0565b50505b505050565b81516001600160401b0381111561012457610124610073565b610138816101328454610087565b846100bf565b6020601f82116001811461016a575f83156101535750848201515b5f19600385901b1c1916600184901b178455610103565b5f84815260208120601f198516915b828110156101995787850151825560209485019460019092019101610179565b50848210156101b657868401515f19600387901b60f8161c191681555b50505050600190811b01905550565b6109a7806101d25f395ff3fe6080604052600436106100c5575f3560e01c806340c10f191161007e5780639dc29fac116100585780639dc29fac14610218578063a9059cbb14610237578063d0e30db0146100d4578063dd62ed3e14610256576100d4565b806340c10f19146101ba57806370a08231146101d957806395d89b4114610204576100d4565b806306fdde03146100dc578063095ea7b31461010657806318160ddd1461013557806323b872dd146101515780632e1a7d4d14610170578063313ce5671461018f576100d4565b366100d4576100d261028c565b005b6100d261028c565b3480156100e7575f5ffd5b506100f06102f5565b6040516100fd91906107ec565b60405180910390f35b348015610111575f5ffd5b5061012561012036600461083c565b610380565b60405190151581526020016100fd565b348015610140575f5ffd5b50475b6040519081526020016100fd565b34801561015c575f5ffd5b5061012561016b366004610864565b6103ec565b34801561017b575f5ffd5b506100d261018a36600461089e565b6105ea565b34801561019a575f5ffd5b506002546101a89060ff1681565b60405160ff90911681526020016100fd565b3480156101c5575f5ffd5b506100d26101d436600461083c565b610723565b3480156101e4575f5ffd5b506101436101f33660046108b5565b60036020525f908152604090205481565b34801561020f575f5ffd5b506100f061077c565b348015610223575f5ffd5b506100d261023236600461083c565b610789565b348015610242575f5ffd5b5061012561025136600461083c565b6107d9565b348015610261575f5ffd5b506101436102703660046108ce565b600460209081525f928352604080842090915290825290205481565b335f908152600360205260409020546102a6903490610913565b335f81815260036020526040908190209290925590517fe1fffcc4923d04b559f4d29a8bfc6cda04eb5b0d3c460751c2402c5c5cc9109c906102eb9034815260200190565b60405180910390a2565b5f805461030190610926565b80601f016020809104026020016040519081016040528092919081815260200182805461032d90610926565b80156103785780601f1061034f57610100808354040283529160200191610378565b820191905f5260205f20905b81548152906001019060200180831161035b57829003601f168201915b505050505081565b335f8181526004602090815260408083206001600160a01b038716808552925280832085905551919290917f8c5be1e5ebec7d5bd14f71427d1e84f3dd0314c0f7b2291e5b200ac8c7c3b925906103da9086815260200190565b60405180910390a35060015b92915050565b6001600160a01b0383165f908152600360205260408120548211156104425760405162461bcd60e51b815260206004820152600760248201526662616c616e636560c81b60448201526064015b60405180910390fd5b6001600160a01b038416331480159061047e57506001600160a01b0384165f9081526004602090815260408083203384529091529020545f1914155b15610533576001600160a01b0384165f9081526004602090815260408083203384529091529020548211156104e15760405162461bcd60e51b8152602060048201526009602482015268616c6c6f77616e636560b81b6044820152606401610439565b6001600160a01b0384165f90815260046020908152604080832033845290915290205461050f90839061095e565b6001600160a01b0385165f9081526004602090815260408083203384529091529020555b6001600160a01b0384165f9081526003602052604090205461055690839061095e565b6001600160a01b038086165f908152600360205260408082209390935590851681522054610585908390610913565b6001600160a01b038085165f8181526003602052604090819020939093559151908616907fddf252ad1be2c89b69c2b068fc378daa952ba7f163c4a11628f55a4df523b3ef906105d89086815260200190565b60405180910390a35060019392505050565b335f908152600360205260409020548111156106375760405162461bcd60e51b815260206004820152600c60248201526b1a5b9cdd59999a58da595b9d60a21b6044820152606401610439565b335f9081526003602052604090205461065190829061095e565b335f8181526003602052604080822093909355915183908381818185875af1925050503d805f811461069e576040519150601f19603f3d011682016040523d82523d5f602084013e6106a3565b606091505b50509050806106ea5760405162461bcd60e51b8152602060048201526013602482015272115512081d1c985b9cd9995c8819985a5b1959606a1b6044820152606401610439565b60405182815233907f7fcf532c15f0a6db0bd6d0e038bea71d30d808c7d98cb3bf7268a95bf5081b659060200160405180910390a25050565b6001600160a01b03821661074c5760405163ec442f0560e01b81525f6004820152602401610439565b6001600160a01b0382165f9081526003602052604081208054839290610773908490610913565b90915550505050565b6001805461030190610926565b6001600160a01b0382166107b257604051634b637e8f60e11b81525f6004820152602401610439565b6001600160a01b0382165f908152600360205260408120805483929061077390849061095e565b5f6107e53384846103ec565b9392505050565b602081525f82518060208401528060208501604085015e5f604082850101526040601f19601f83011684010191505092915050565b80356001600160a01b0381168114610837575f5ffd5b919050565b5f5f6040838503121561084d575f5ffd5b61085683610821565b946020939093013593505050565b5f5f5f60608486031215610876575f5ffd5b61087f84610821565b925061088d60208501610821565b929592945050506040919091013590565b5f602082840312156108ae575f5ffd5b5035919050565b5f602082840312156108c5575f5ffd5b6107e582610821565b5f5f604083850312156108df575f5ffd5b6108e883610821565b91506108f660208401610821565b90509250929050565b634e487b7160e01b5f52601160045260245ffd5b808201808211156103e6576103e66108ff565b600181811c9082168061093a57607f821691505b60208210810361095857634e487b7160e01b5f52602260045260245ffd5b50919050565b818103818111156103e6576103e66108ff56fea2646970667358221220ce26378e5da6870458bc12e50a2650c5d0216a73ebccc6d40de35e7d5d1c8f5d64736f6c634300081e0033","linkReferences":{}},"methodIdentifiers":{"allowance(address,address)":"dd62ed3e","approve(address,uint256)":"095ea7b3","balanceOf(address)":"70a08231","burn(address,uint256)":"9dc29fac","decimals()":"313ce567","deposit()":"d0e30db0","mint(address,uint256)":"40c10f19","name()":"06fdde03","symbol()":"95d89b41","totalSupply()":"18160ddd","transfer(address,uint256)":"a9059cbb","transferFrom(address,address,uint256)":"23b872dd","withdraw(uint256)":"2e1a7d4d"},"id":0}